{
  "contractName": "Donation",
  "abi": [
    {
      "constant": false,
      "inputs": [],
      "name": "donate",
      "outputs": [],
      "payable": true,
      "stateMutability": "payable",
      "type": "function"
    },
    {
      "constant": true,
      "inputs": [],
      "name": "balance",
      "outputs": [
        {
          "name": "",
          "type": "uint256"
        }
      ],
      "payable": false,
      "stateMutability": "view",
      "type": "function"
    }
  ],
  "bytecode": "0x608060405234801561001057600080fd5b506101be806100206000396000f3fe60806040526004361061004c576000357c0100000000000000000000000000000000000000000000000000000000900463ffffffff168063b69ef8a814610051578063ed88c68e1461007c575b600080fd5b34801561005d57600080fd5b50610066610086565b6040518082815260200191505060405180910390f35b6100846100cc565b005b60008060003373ffffffffffffffffffffffffffffffffffffffff1673ffffffffffffffffffffffffffffffffffffffff16815260200190815260200160002054905090565b600034111515610144576040517f08c379a000000000000000000000000000000000000000000000000000000000815260040180806020018281038252601c8152602001807f596f752068617665206e6f7420646f6e6174656420656e6f756768210000000081525060200191505060405180910390fd5b346000803373ffffffffffffffffffffffffffffffffffffffff1673ffffffffffffffffffffffffffffffffffffffff1681526020019081526020016000206000828254019250508190555056fea165627a7a72305820db68be13e3fa45a1e12aedba161a122475bd26310d6c558e85c4f0428454de040029",
  "source": "pragma solidity >=0.5.0;\n\ncontract Donation {\n    mapping(address => uint256) internal balances;\n    \n    function donate() external payable {\n        require(msg.value > 0, \"You have not donated enough!\");\n        \n        balances[msg.sender] += msg.value;\n    }\n    \n    function balance() external view returns(uint256) {\n        return balances[msg.sender];\n    }\n}\n\n",
  "sourcePath": "/home/gianmarcotoso/Sync/Corsi/corso-solidity/playground/contracts/Donation.sol",
  "compiler": {
    "name": "solc",
    "version": "0.5.0+commit.1d4f565a.Emscripten.clang"
  },
  "schemaVersion": "3.0.6",
  "updatedAt": "2019-03-29T16:42:30.052Z",
  "devdoc": {
    "methods": {}
  },
  "userdoc": {
    "methods": {}
  }
}