{
  "contractName": "EventExample",
  "abi": [
    {
      "inputs": [],
      "payable": false,
      "stateMutability": "nonpayable",
      "type": "constructor",
      "signature": "constructor"
    },
    {
      "anonymous": false,
      "inputs": [
        {
          "indexed": false,
          "name": "sender",
          "type": "address"
        },
        {
          "indexed": false,
          "name": "value",
          "type": "uint256"
        }
      ],
      "name": "MoneyReceived",
      "type": "event",
      "signature": "0x27b15ed4cf832749ed39f33a64e4707ed60a761485e41ffec7343ecaddc0c02a"
    },
    {
      "anonymous": false,
      "inputs": [
        {
          "indexed": false,
          "name": "sender",
          "type": "address"
        },
        {
          "indexed": false,
          "name": "name",
          "type": "string"
        }
      ],
      "name": "DonorNameSet",
      "type": "event",
      "signature": "0x6ebd23a091102463b23a2db17ab59d36bc585c8b1bf547c582888749088c024b"
    },
    {
      "constant": false,
      "inputs": [],
      "name": "withdraw",
      "outputs": [],
      "payable": false,
      "stateMutability": "nonpayable",
      "type": "function",
      "signature": "0x3ccfd60b"
    },
    {
      "constant": false,
      "inputs": [],
      "name": "donate",
      "outputs": [],
      "payable": true,
      "stateMutability": "payable",
      "type": "function",
      "signature": "0xed88c68e"
    },
    {
      "constant": false,
      "inputs": [
        {
          "name": "name",
          "type": "string"
        }
      ],
      "name": "setDonorName",
      "outputs": [],
      "payable": false,
      "stateMutability": "nonpayable",
      "type": "function",
      "signature": "0x34607994"
    }
  ],
  "bytecode": "0x608060405234801561001057600080fd5b50336000806101000a81548173ffffffffffffffffffffffffffffffffffffffff021916908373ffffffffffffffffffffffffffffffffffffffff16021790555061046a806100606000396000f3fe608060405260043610610057576000357c0100000000000000000000000000000000000000000000000000000000900463ffffffff168063346079941461005c5780633ccfd60b146100e2578063ed88c68e146100f9575b600080fd5b34801561006857600080fd5b506100e06004803603602081101561007f57600080fd5b810190808035906020019064010000000081111561009c57600080fd5b8201836020820111156100ae57600080fd5b803590602001918460018302840111640100000000831117156100d057600080fd5b9091929391929390505050610103565b005b3480156100ee57600080fd5b506100f761019e565b005b610101610233565b005b7f6ebd23a091102463b23a2db17ab59d36bc585c8b1bf547c582888749088c024b338383604051808473ffffffffffffffffffffffffffffffffffffffff1673ffffffffffffffffffffffffffffffffffffffff168152602001806020018281038252848482818152602001925080828437600081840152601f19601f82011690508083019250505094505050505060405180910390a15050565b6000809054906101000a900473ffffffffffffffffffffffffffffffffffffffff1673ffffffffffffffffffffffffffffffffffffffff163373ffffffffffffffffffffffffffffffffffffffff161415156101f957600080fd5b6000809054906101000a900473ffffffffffffffffffffffffffffffffffffffff1673ffffffffffffffffffffffffffffffffffffffff16ff5b6000341115156102ab576040517f08c379a000000000000000000000000000000000000000000000000000000000815260040180806020018281038252600f8152602001807f53656e6420736f6d65206361736821000000000000000000000000000000000081525060200191505060405180910390fd5b7fffffffffffffffffffffffffffffffffffffffffffffffffffffffffffffffff600160003373ffffffffffffffffffffffffffffffffffffffff1673ffffffffffffffffffffffffffffffffffffffff16815260200190815260200160002054340111151515610384576040517f08c379a000000000000000000000000000000000000000000000000000000000815260040180806020018281038252601a8152602001807f596f7520616c72656164792073656e7420746f6f206d7563682100000000000081525060200191505060405180910390fd5b34600160003373ffffffffffffffffffffffffffffffffffffffff1673ffffffffffffffffffffffffffffffffffffffff168152602001908152602001600020600082825401925050819055507f27b15ed4cf832749ed39f33a64e4707ed60a761485e41ffec7343ecaddc0c02a3334604051808373ffffffffffffffffffffffffffffffffffffffff1673ffffffffffffffffffffffffffffffffffffffff1681526020018281526020019250505060405180910390a156fea165627a7a72305820e79f868540730f43e8ce5a60f3898e37ae62a4c32d75d0a67ee8fbde8de3967d0029",
  "source": "pragma solidity >=0.5.0;\n\ncontract EventExample {\n    address payable owner;\n    event MoneyReceived(address sender, uint256 value);\n    event DonorNameSet(address sender, string name);\n    mapping(address => uint256) balances;\n\n    modifier isOwner {\n        require(msg.sender == owner);\n        _;\n    }\n\n    constructor() public {\n        owner = msg.sender;\n    }\n\n    function withdraw() external isOwner {\n        selfdestruct(owner);\n    }\n\n    function donate() external payable {\n        require(msg.value > 0, \"Send some cash!\");\n        require(msg.value + balances[msg.sender] <= uint(2**256 - 1), \"You already sent too much!\");\n\n        balances[msg.sender] += msg.value;\n        emit MoneyReceived(msg.sender, msg.value);\n    }\n\n    function setDonorName(string calldata name) external {\n        emit DonorNameSet(msg.sender, name);\n    }\n}",
  "sourcePath": "/home/gianmarcotoso/Sync/Corsi/corso-solidity/playground/contracts/EventExample.sol",
  "compiler": {
    "name": "solc",
    "version": "0.5.0+commit.1d4f565a.Emscripten.clang"
  },
  "schemaVersion": "3.0.6",
  "updatedAt": "2019-03-29T16:43:17.436Z",
  "devdoc": {
    "methods": {}
  },
  "userdoc": {
    "methods": {}
  }
}