{
  "contractName": "SupplierTrust",
  "abi": [
    {
      "inputs": [],
      "payable": false,
      "stateMutability": "nonpayable",
      "type": "constructor",
      "signature": "constructor"
    },
    {
      "anonymous": false,
      "inputs": [
        {
          "indexed": false,
          "name": "supplier",
          "type": "address"
        }
      ],
      "name": "SupplierRegistered",
      "type": "event",
      "signature": "0xbcffc870b52d3cb785b17c2c7426be70f9181ce49c43cc7b479ebcfac2d7a1c8"
    },
    {
      "constant": false,
      "inputs": [
        {
          "name": "name",
          "type": "string"
        }
      ],
      "name": "register",
      "outputs": [],
      "payable": false,
      "stateMutability": "nonpayable",
      "type": "function",
      "signature": "0xf2c298be"
    },
    {
      "constant": false,
      "inputs": [
        {
          "name": "supplier",
          "type": "address"
        }
      ],
      "name": "activateSupplier",
      "outputs": [],
      "payable": false,
      "stateMutability": "nonpayable",
      "type": "function",
      "signature": "0xdea79a25"
    },
    {
      "constant": false,
      "inputs": [
        {
          "name": "name",
          "type": "string"
        },
        {
          "name": "signature",
          "type": "string"
        }
      ],
      "name": "addSignature",
      "outputs": [],
      "payable": false,
      "stateMutability": "nonpayable",
      "type": "function",
      "signature": "0x0a0c5e0d"
    },
    {
      "constant": true,
      "inputs": [
        {
          "name": "supplier",
          "type": "address"
        },
        {
          "name": "name",
          "type": "string"
        }
      ],
      "name": "getSignatureFrom",
      "outputs": [
        {
          "name": "",
          "type": "string"
        }
      ],
      "payable": false,
      "stateMutability": "view",
      "type": "function",
      "signature": "0xda312be4"
    }
  ],
  "bytecode": "0x608060405234801561001057600080fd5b50336000806101000a81548173ffffffffffffffffffffffffffffffffffffffff021916908373ffffffffffffffffffffffffffffffffffffffff160217905550610c89806100606000396000f3fe608060405260043610610062576000357c0100000000000000000000000000000000000000000000000000000000900463ffffffff1680630a0c5e0d14610067578063da312be414610142578063dea79a2514610261578063f2c298be146102b2575b600080fd5b34801561007357600080fd5b506101406004803603604081101561008a57600080fd5b81019080803590602001906401000000008111156100a757600080fd5b8201836020820111156100b957600080fd5b803590602001918460018302840111640100000000831117156100db57600080fd5b9091929391929390803590602001906401000000008111156100fc57600080fd5b82018360208201111561010e57600080fd5b8035906020019184600183028401116401000000008311171561013057600080fd5b9091929391929390505050610338565b005b34801561014e57600080fd5b506101e66004803603604081101561016557600080fd5b81019080803573ffffffffffffffffffffffffffffffffffffffff169060200190929190803590602001906401000000008111156101a257600080fd5b8201836020820111156101b457600080fd5b803590602001918460018302840111640100000000831117156101d657600080fd5b9091929391929390505050610480565b6040518080602001828103825283818151815260200191508051906020019080838360005b8381101561022657808201518184015260208101905061020b565b50505050905090810190601f1680156102535780820380516001836020036101000a031916815260200191505b509250505060405180910390f35b34801561026d57600080fd5b506102b06004803603602081101561028457600080fd5b81019080803573ffffffffffffffffffffffffffffffffffffffff16906020019092919050505061064f565b005b3480156102be57600080fd5b50610336600480360360208110156102d557600080fd5b81019080803590602001906401000000008111156102f257600080fd5b82018360208201111561030457600080fd5b8035906020019184600183028401116401000000008311171561032657600080fd5b909192939192939050505061083b565b005b60011515600160003373ffffffffffffffffffffffffffffffffffffffff1673ffffffffffffffffffffffffffffffffffffffff16815260200190815260200160002060010160009054906101000a900460ff161515141515610403576040517f08c379a00000000000000000000000000000000000000000000000000000000081526004018080602001828103825260138152602001807f596f7520617265206e6f7420616c6c6f7765640000000000000000000000000081525060200191505060405180910390fd5b8181600160003373ffffffffffffffffffffffffffffffffffffffff1673ffffffffffffffffffffffffffffffffffffffff168152602001908152602001600020600201868660405180838380828437808301925050509250505090815260200160405180910390209190610479929190610b1c565b5050505050565b60606000809054906101000a900473ffffffffffffffffffffffffffffffffffffffff1673ffffffffffffffffffffffffffffffffffffffff163373ffffffffffffffffffffffffffffffffffffffff16141515610546576040517f08c379a00000000000000000000000000000000000000000000000000000000081526004018080602001828103825260148152602001807f596f7520617265206e6f7420616c6c6f7765642100000000000000000000000081525060200191505060405180910390fd5b600160008573ffffffffffffffffffffffffffffffffffffffff1673ffffffffffffffffffffffffffffffffffffffff168152602001908152602001600020600201838360405180838380828437808301925050509250505090815260200160405180910390208054600181600116156101000203166002900480601f0160208091040260200160405190810160405280929190818152602001828054600181600116156101000203166002900480156106415780601f1061061657610100808354040283529160200191610641565b820191906000526020600020905b81548152906001019060200180831161062457829003601f168201915b505050505090509392505050565b6000809054906101000a900473ffffffffffffffffffffffffffffffffffffffff1673ffffffffffffffffffffffffffffffffffffffff163373ffffffffffffffffffffffffffffffffffffffff16141515610713576040517f08c379a00000000000000000000000000000000000000000000000000000000081526004018080602001828103825260148152602001807f596f7520617265206e6f7420616c6c6f7765642100000000000000000000000081525060200191505060405180910390fd5b60001515600160008373ffffffffffffffffffffffffffffffffffffffff1673ffffffffffffffffffffffffffffffffffffffff16815260200190815260200160002060010160009054906101000a900460ff1615151415156107de576040517f08c379a000000000000000000000000000000000000000000000000000000000815260040180806020018281038252600e8152602001807f416c72656164792061637469766500000000000000000000000000000000000081525060200191505060405180910390fd5b60018060008373ffffffffffffffffffffffffffffffffffffffff1673ffffffffffffffffffffffffffffffffffffffff16815260200190815260200160002060010160006101000a81548160ff02191690831515021790555050565b6000809054906101000a900473ffffffffffffffffffffffffffffffffffffffff1673ffffffffffffffffffffffffffffffffffffffff163373ffffffffffffffffffffffffffffffffffffffff1614151515610900576040517f08c379a00000000000000000000000000000000000000000000000000000000081526004018080602001828103825260188152602001807f4f776e65722063616e6e6f7420626520737570706c696572000000000000000081525060200191505060405180910390fd5b6000600160003373ffffffffffffffffffffffffffffffffffffffff1673ffffffffffffffffffffffffffffffffffffffff1681526020019081526020016000206000018054600181600116156101000203166002900490501415156109ce576040517f08c379a000000000000000000000000000000000000000000000000000000000815260040180806020018281038252601b8152602001807f54686520737570706c69657220616c726561647920657869737473000000000081525060200191505060405180910390fd5b6109d6610b9c565b604080519081016040528084848080601f016020809104026020016040519081016040528093929190818152602001838380828437600081840152601f19601f82011690508083019250505050505050815260200160001515815250905080600160003373ffffffffffffffffffffffffffffffffffffffff1673ffffffffffffffffffffffffffffffffffffffff1681526020019081526020016000206000820151816000019080519060200190610a90929190610bb8565b5060208201518160010160006101000a81548160ff0219169083151502179055509050507fbcffc870b52d3cb785b17c2c7426be70f9181ce49c43cc7b479ebcfac2d7a1c833604051808273ffffffffffffffffffffffffffffffffffffffff1673ffffffffffffffffffffffffffffffffffffffff16815260200191505060405180910390a1505050565b828054600181600116156101000203166002900490600052602060002090601f016020900481019282601f10610b5d57803560ff1916838001178555610b8b565b82800160010185558215610b8b579182015b82811115610b8a578235825591602001919060010190610b6f565b5b509050610b989190610c38565b5090565b6040805190810160405280606081526020016000151581525090565b828054600181600116156101000203166002900490600052602060002090601f016020900481019282601f10610bf957805160ff1916838001178555610c27565b82800160010185558215610c27579182015b82811115610c26578251825591602001919060010190610c0b565b5b509050610c349190610c38565b5090565b610c5a91905b80821115610c56576000816000905550600101610c3e565b5090565b9056fea165627a7a723058209042a4178b1080cc49157f35e6e358e305f1afb1d3689add4fed5596073627ba0029",
  "source": "pragma solidity >=0.5.0;\n\ncontract SupplierTrust {\n    address owner;\n    \n    struct Supplier {\n        string name;\n        bool active;\n        mapping(string => string) signatures;\n    }\n    \n    mapping(address => Supplier) suppliers;\n    \n    event SupplierRegistered(address supplier);\n\n    constructor() public {\n        owner = msg.sender;\n    }\n    \n    modifier isOwner {\n        require(msg.sender == owner, \"You are not allowed!\");\n        _;\n    }\n    \n    modifier isActive {\n        require(suppliers[msg.sender].active == true, \"You are not allowed\");\n        _;\n    }\n    \n    function register(string calldata name) external {\n        require(msg.sender != owner, \"Owner cannot be supplier\");\n        require(bytes(suppliers[msg.sender].name).length == 0, \"The supplier already exists\");\n        \n        Supplier memory created = Supplier({ name: name, active: false });\n        suppliers[msg.sender] = created;\n        \n        emit SupplierRegistered(msg.sender);\n    }\n\n    \n    function activateSupplier(address supplier) external isOwner {\n        require(suppliers[supplier].active == false, \"Already active\");\n        \n        suppliers[supplier].active = true;\n    }\n    \n    function addSignature(string calldata name, string calldata signature) external isActive {\n        suppliers[msg.sender].signatures[name] = signature;\n    }\n    \n    function getSignatureFrom(address supplier, string calldata name) external view isOwner returns (string memory) {\n        return suppliers[supplier].signatures[name];\n    }\n\n}",
  "sourcePath": "/home/gianmarcotoso/Sync/Corsi/corso-solidity/playground/contracts/SupplierTrust.sol",
  "compiler": {
    "name": "solc",
    "version": "0.5.0+commit.1d4f565a.Emscripten.clang"
  },
  "schemaVersion": "3.0.6",
  "updatedAt": "2019-03-29T16:42:31.623Z",
  "devdoc": {
    "methods": {}
  },
  "userdoc": {
    "methods": {}
  }
}